:03000000020800F3
:0C080000787FE4F6D8FD758111020847EE
:0D09E90048656C6C6F20576F726C642100C4
:0C09DC00020A0030020C0030020800008B
:0F0942008F807F057E00120951D2A77F057E00AE
:10095100D3EF9400EE940040147D6E7C00ED1D7089
:0D096100011CED4C70F7EF1F70E61E80E3E7
:01096E002266
:0809F600C2A6120942C2A722A9
:0709CD007F801209F6AF0B59
:0809D400D2A6120942C2A722BB
:10090B008B0F8A108911EF64014E70047F80800277
:10091B007FC01209F6AB0FAA10A91112098C601631
:10092B000511E5117002051014F912098CFF12095B
:07093B00D412094D80DF22F8
:1009A500C2A7C2A57F381209F67F0C1209F67F0689
:0809B5001209F67F010209F6A8
:1009BD00758901758C3C758AB0D2AFD2A9D28C22C3
:10096F001209BD1209A57BFF7A0979E97F027E0082
:0D097F0012090B1209CDAF0D1209D480FE34
:03000B0002088C5C
:0F088C00C0E0C0D075D000C004C005C006C007D2
:10089B000509E50970020508D39414E50894004096
:1008AB0052750800750900050DE50D7002050C7FEA
:1008BB00811209F6AF0D1209D4D3E50D9439E50C6D
:1008CB009400401B750C00750D307F811209F6AF3B
:1008DB000D1209D4050BE50B7002050A1209CDD3D5
:1008EB00E50B9435E50A94004009750A00750B3049
:0308FB001209CD12
:0D08FE00D007D006D005D004D0D0D0E03215
:10080C0002096FE493A3F8E493A34003F68001F28A
:10081C0008DFF48029E493A3F85407240CC8C333ED
:10082C00C4540F4420C8834004F456800146F6DFBC
:10083C00E4800B01020408102040809009DCE47E67
:10084C00019360BCA3FF543F30E509541FFEE493B1
:10085C00A360010ECF54C025E060A840B8E493A378
:10086C00FAE493A3F8E493A3C8C582C8CAC583CAA3
:10087C00F0A3C8C582C8CAC583CADFE9DEE780BE5B
:0109E800000E
:10098C00BB010689828A83E0225002E722BBFE0269
:09099C00E32289828A83E493229C
:00000001FF
