:03000000020800F3
:0C080000787FE4F6D8FD75810B020847F4
:1008EE00010204081020408000003E4141413E00BC
:1008FE0000000000217F010000002745454539001A
:10090E00000022494949360000000C14247F0400DF
:10091E000000725151514E0000003E4949492600D7
:10092E0000004040404F70000000364949493600F3
:08093E000000324949493E0066
:03095F00010B0089
:10094600AE071FEE6012E4F508E508C394647480F0
:09095600948050EC050880F122A8
:10088C00E4F50BC3E50B940A7480948050F275095F
:10089C0001C3E5099432748094805042E4F50AC394
:1008AC00E50A9408748094805030E50A9008EE9321
:1008BC00F580E50B75F008A424F6F582E43408F510
:1008CC0083E582250AF582E43583F583E493F4F518
:1008DC00907F03120946050A80C5050980B3050BF4
:0208EC0080A1E9
:10080C0002088CE493A3F8E493A34003F68001F26E
:10081C0008DFF48029E493A3F85407240CC8C333ED
:10082C00C4540F4420C8834004F456800146F6DFBC
:10083C00E4800B010204081020408090095FE47EE4
:10084C00019360BCA3FF543F30E509541FFEE493B1
:10085C00A360010ECF54C025E060A840B8E493A378
:10086C00FAE493A3F8E493A3C8C582C8CAC583CAA3
:10087C00F0A3C8C582C8CAC583CADFE9DEE780BE5B
:010962000094
:00000001FF
